:1000000012C02CC02BC02AC029C028C027C026C0BF
:1000100025C094C223C022C021C020C01FC01EC062
:100020001DC01CC01BC011241FBECFE5D4E0DEBF25
:10003000CDBF10E0A0E6B0E0E4E6FCE002C0059031
:100040000D92A237B107D9F710E0A2E7B0E001C0E6
:100050001D92A537B107E1F794D002C6D1CFAF9278
:10006000BF92DF92EF92FF920F931F93DF93CF9394
:10007000CDB7DEB764970FB6F894DEBF0FBECDBF25
:10008000D82EB29B73C0882309F476C080E061E06B
:1000900000D580E690E02ED589E061E0FAD486E6CE
:1000A00090E028D580E09BD38C01000F111F080F32
:1000B000191F000F111F000F111F000F111F080F34
:1000C000191F80E062E0E5D448EEA42E43E0B42E90
:1000D000C801B50145D57C01CB018E010F5F1F4FD3
:1000E000B8014AE050E08DD5C80104D58CE257D460
:1000F000C701B8014AE050E084D5C801FBD482E0D2
:100100006ED37C01EE0CFF1CE80EF91EEE0CFF1CFA
:10011000EE0CFF1CEE0CFF1CE80EF91E89E062E0FD
:10012000B8D4C701B5011CD57C01CB01B8014AE0A8
:1001300050E067D5C801DED48CE231D4C701B801E4
:100140004AE050E05ED5C801D5D48D2D64960FB637
:10015000F894DEBF0FBECDBFCF91DF911F910F91FD
:10016000FF90EF90DF90BF90AF900895882369F3E0
:1001700088E034D4DD24E9CF8CE030D4DD24D3947E
:1001800085CF5F926F927F928F929F92AF92BF9234
:10019000CF92DF92EF92FF920F931F93CF93DF9353
:1001A00087B3827C896387BB84B3806384BB81B35C
:1001B0008F7381BB05D34BD38FEB94EDA1E08150BE
:1001C0009040A040E1F700C000008FE007D48CE62B
:1001D00090E090D489E685BD85E083BF89B78160D2
:1001E00089BF88EC83BD7894C09810E09924882456
:1001F00066246394C3E7D0E0552453947EEF772EB2
:100200008091730090917400BE01AAD40097C1F749
:1002100082E0E5D28B3F910508F4E2C08D3F910565
:1002200008F0959A80E0DBD27C0182E0D8D28E156E
:100230009F050CF0A1C0112319F088B38F7C88BBF7
:1002400082E0CDD2AFEF8F3F9A0709F4CBC086B3DF
:1002500080E0C5D27C0181E0C2D223B52B3F18F4E7
:1002600023B52C5F23BD9C01A7016BD45B016C01FE
:100270008FE295E70197F1F700C0000080E0AFD270
:100280007C0181E0ACD29C01A7015BD47B018C0195
:10029000A616B706C806D90608F455C083B5893036
:1002A00018F083B5885083BD8FE295E70197F1F789
:1002B00000C0000080E093D27C0181E090D29C01DC
:1002C000A7013FD47B018C01A616B706C806D90644
:1002D000E0F080917300909174008D329105F1F1FE
:1002E00010E08ECF83B5815083BD80E078D26C0161
:1002F00081E075D29C01A60124D46E157F0580078C
:10030000910708F47CC07B018C01AFE5BAEE119730
:10031000F1F700C0000083B5823020F753BCE5CF71
:1003200083B58F5F83BD80E05AD26C0181E057D2E4
:100330009C01A60106D46E157F058007910708F47D
:1003400062C07B018C01AFE5BAEE1197F1F700C0F6
:10035000000083B58E3F20F373BCE5CF809172001F
:1003600080FFBECF862D7BDE682E809172008E7F4F
:100370008093720010E044CF82E031D27C0180E0B3
:100380002ED28E159F050CF03BCF86B38E7F09F0E1
:10039000C0989C99AC98882031F410FF26C01E7F2D
:1003A000C49888248394992031F411FF23C01D7FC1
:1003B000C5989924939480917300909174008D3224
:1003C000910509F01DCF8091720080FF19CF862D15
:1003D00046DE682E809172008E7F8093720010CF6F
:1003E000AD9820CFC09810E00BCF1160C49A88243C
:1003F0008394D9CF1260C59A99249394DCCF83B5A6
:100400008F5F83BD66CF83B5815083BD62CFCF92AE
:10041000DF92EF92FF920F931F93DF93CF93CDB7AD
:10042000DEB765970FB6F894DEBF0FBECDBF082FBD
:10043000262FB29B77C0662309F47AC0002309F007
:1004400061C080E061E02D8B24D380E690E052D340
:1004500089E061E01ED386E690E04CD380E0BFD116
:100460008C01000F111F080F191F000F111F000F23
:10047000111F000F111F080F191F80E062E009D340
:10048000A8EECA2EA3E0DA2EC801B60169D37C011A
:10049000CB018E010F5F1F4FB8014AE050E0B1D38E
:1004A000C80128D38CE27BD2C701B8014AE050E0F2
:1004B000A8D3C8011FD382E092D17C01EE0CFF1CAF
:1004C000E80EF91EEE0CFF1CEE0CFF1CEE0CFF1CE0
:1004D000E80EF91E89E062E0DCD2C701B60140D324
:1004E0007C01CB01B8014AE050E08BD3C80102D3B4
:1004F0008CE255D2C701B8014AE050E082D3C8016E
:10050000F9D22D89822F65960FB6F894DEBF0FBE03
:10051000CDBFCF91DF911F910F91FF90EF90DF90B2
:10052000CF900895662371F388E058D220E0EACF97
:100530008CE054D221E0002329F783CF1F920F9241
:100540000FB60F9211248F939F9381E090E09093C8
:1005500074008093730080917200836080937200B6
:100560009F918F910F900FBE0F901F901895CF9372
:10057000DF9380E034D1EC0181E031D19C01AE0108
:10058000E0D2DF91CF910895AF92BF92CF92DF92E8
:10059000EF92FF920F931F93CF93DF9380E01FD1D1
:1005A000EC0181E01CD19C01AE01CBD25B016C015E
:1005B00083B58B3F18F483B58C5F83BD8FE295E7DD
:1005C0000197F1F700C0000080E009D1EC0181E063
:1005D00006D19C01AE01B5D27B018C01A616B706EF
:1005E000C806D90608F44AC083B5893018F083B527
:1005F000885083BD8FE295E70197F1F700C00000B6
:1006000080E0EDD0EC0181E0EAD09C01AE0199D20E
:100610007B018C01A616B706C806D90658F0DF91F3
:10062000CF911F910F91FF90EF90DF90CF90BF90EF
:10063000AF900895AA24A39412C083B5815083BDBE
:1006400080E0CDD0EC0181E0CAD09C01AE0179D22E
:100650006E157F058007910768F07B018C018FE59F
:100660009AEE0197F1F700C0000083B5823028F7B9
:10067000A3BCE6CF83B58F5F83BDD1CF3EEFA32E62
:1006800012C083B58F5F83BD80E0A9D0EC0181E00B
:10069000A6D09C01AE0155D26E157F05800791074B
:1006A00068F07B018C018FE59AEE0197F1F700C0AD
:1006B000000083B58E3F28F3A3BCE6CF83B58150FD
:1006C00083BDADCFDF92EF92FF920F931F93CF9335
:1006D000DF937B018C014EEFD42E12C083B58F5F68
:1006E00083BD80E07CD0EC0181E079D09C01AE013B
:1006F00028D26E157F058007910768F07B018C0179
:100700008FE59AEE0197F1F700C0000083B58E3FA8
:1007100028F3D3BCE6CF83B5815083BDDF91CF9161
:100720001F910F91FF90EF90DF900895DF92EF926D
:10073000FF920F931F93CF93DF937B018C01DD24F6
:10074000D39412C083B5815083BD80E048D0EC01C2
:1007500081E045D09C01AE01F4D16E157F05800784
:10076000910768F07B018C018FE59AEE0197F1F714
:1007700000C0000083B5823028F7D3BCE6CF83B534
:100780008F5F83BDDF91CF911F910F91FF90EF900D
:10079000DF90089582E023D08B3F910528F08D3FB4
:1007A000910508F0959A0895AD98089582E017D0C4
:1007B00021E03FEF8F3F930709F020E0822F08955B
:1007C00080EC87B986E086B9379A369A3699FECF9B
:1007D00084B195B10895379A08953798089597B1DF
:1007E0008F71907E892B87B9369A3699FECF24B1C6
:1007F00035B1C90108950F931F93562F662319F140
:10080000E82FEF7140E060E070E0CB0137B1307E5F
:100810003E2B37B9369A3699FECF04B115B122274F
:1008200017FD2095322F600F711F821F931F4F5F9E
:10083000451760F3252F30E040E050E0A5D1C90115
:100840001F910F91089560E070E0CB01F3CF81B369
:100850008F6381BB82B3807C82BB87EC9FEA019768
:10086000F1F700C0000082B3807F82BB82B3836057
:1008700082BB959A94E09A95F1F7959887E99AE367
:100880000197F1F700C00000959A94E09A95F1F76E
:10089000959887EB9BE00197F1F700C00000959ACF
:1008A00094E09A95F1F7959887EB9BE00197F1F723
:1008B00000C0000082B3807F82BB919A959A94E039
:1008C0009A95F1F7959887E99AE30197F1F700C0B7
:1008D0000000949882B3807F82BB919A959A94E0AD
:1008E0009A95F1F7959882B3807F82BB939A959AF7
:1008F00084E08A95F1F7959898EA9A95F1F794989B
:1009000082B3807F82BB82B382BB959A84E08A9552
:10091000F1F7959882B3807F82BB82B38C6082BBF3
:10092000959A94E09A95F1F7959888EA8A95F1F767
:10093000949882B3807F82BB82B382BB959A94E005
:100940009A95F1F7959882B3807F82BB82B38660D7
:1009500082BB959A84E08A95F1F7959898EA9A95E2
:10096000F1F7949882B3807F82BB82B382BB959A61
:1009700084E08A95F1F7959882B3807F82BB909A44
:10098000959A94E09A95F1F7959888EA8A95F1F707
:100990008FE697E10197F1F700C000000895949A5F
:1009A00092B3907F92BB22B3982F92959F70922B17
:1009B00092BB959A94E09A95F1F7959892B3907FAF
:1009C00092BB92B38F70892B82BB959A84E08A95F3
:1009D000F1F7959898EB9A95F1F70895949892B35A
:1009E000907F92BB22B3982F92959F70922B92BBCF
:1009F000959A94E09A95F1F7959892B3907F92BB6F
:100A000092B38F70892B82BB959A84E08A95F1F717
:100A1000959898EA9A95F1F70895949882B3807F13
:100A200082BB82B382BB959A84E08A95F1F7959850
:100A300082B3807F82BB909A959A94E09A95F1F761
:100A4000959888EA8A95F1F78FE697E10197F1F793
:100A500000C000000895949882B3807F82BB82B367
:100A600082BB959A84E08A95F1F7959882B3807F4E
:100A700082BB919A959A94E09A95F1F7959888EAB5
:100A80008A95F1F78FE697E10197F1F700C0000032
:100A90000895623059F1633028F0633049F16430D1
:100AA00019F108956130E9F78058949892B3907FD6
:100AB00092BB22B3982F92959F70922B92BB959ADE
:100AC00094E09A95F1F7959892B3907F92BB92B388
:100AD0008F70892B82BB959A84E08A95F1F795985F
:100AE00098EA9A95F1F708958053DFCF8054DDCFCF
:100AF0008057DBCFFC018081882311F13196949AD5
:100B000092B3907F92BB22B3982F92959F70922BB5
:100B100092BB959A94E09A95F1F7959892B3907F4D
:100B200092BB92B38F70892B82BB959A84E08A9591
:100B3000F1F7959898EB9A95F1F781918823F9F65A
:100B400008955302C001429FB0015203700D811DF0
:100B50001124911D3403700D811D1124911D0895E0
:100B6000AA1BBB1B51E107C0AA1FBB1FA617B707D3
:100B700010F0A61BB70B881F991F5A95A9F78095EF
:100B80009095BC01CD01089597FB092E05260ED046
:100B900057FD04D014D00AD0001C38F4509540956D
:100BA000309521953F4F4F4F5F4F0895F6F7909541
:100BB0008095709561957F4F8F4F9F4F0895A1E26B
:100BC0001A2EAA1BBB1BFD010DC0AA1FBB1FEE1FC7
:100BD000FF1FA217B307E407F50720F0A21BB30B12
:100BE000E40BF50B661F771F881F991F1A9469F78E
:100BF00060957095809590959B01AC01BD01CF01EA
:100C00000895FB019F01E8944230BCF04532ACF4FA
:100C10004A3029F497FB1EF4909581959F4F642FDD
:100C200077279EDF805D8A330CF0895D8193CB014D
:100C30000097A9F716F45DE251931082C90100C034
:100C4000DC01FC01672F71917723E1F7329704C033
:100C50007C916D9370836291AE17BF07C8F30895BE
:040C6000F894FFCF36
:100C6400555F536F6C00555F426174005465737433
:020C740000007E
:00000001FF
