:1000000012C02CC02BC02AC029C028C027C026C0BF
:1000100025C0E8C123C022C021C020C01FC01EC00F
:100020001DC01CC01BC011241FBECFE5D4E0DEBF25
:10003000CDBF10E0A0E6B0E0E4EAF8E002C0059031
:100040000D92AC37B107D9F710E0ACE7B0E001C0D2
:100050001D92AF37B107E1F794D022C4D1CFAF9250
:10006000BF92DF92EF92FF920F931F93DF93CF9394
:10007000CDB7DEB764970FB6F894DEBF0FBECDBF25
:10008000D82EB29B73C0882309F476C080E061E06B
:100090002FD380E690E05DD389E061E029D386E646
:1000A00090E057D380E0CAD18C01000F111F080FD8
:1000B000191F000F111F000F111F000F111F080F34
:1000C000191F80E062E014D348EEA42E43E0B42E62
:1000D000C801B50165D37C01CB018E010F5F1F4FB5
:1000E000B8014AE050E0ADD3C80133D38CE286D2E8
:1000F000C701B8014AE050E0A4D3C8012AD382E086
:100100009DD17C01EE0CFF1CE80EF91EEE0CFF1CCD
:10011000EE0CFF1CEE0CFF1CE80EF91E89E062E0FD
:10012000E7D2C701B5013CD37C01CB01B8014AE05D
:1001300050E087D3C8010DD38CE260D2C701B8016B
:100140004AE050E07ED3C80104D38D2D64960FB6EB
:10015000F894DEBF0FBECDBFCF91DF911F910F91FD
:10016000FF90EF90DF90BF90AF900895882369F3E0
:1001700088E063D2DD24E9CF8CE05FD2DD24D39424
:1001800085CFFF920F931F93CF93DF9387B3827C2A
:10019000896387BB84B3806384BB81B38F7381BB66
:1001A0003ED184D18FEB94EDA1E081509040A040EE
:1001B000E1F700C000008FE040D28CE690E0C9D2A9
:1001C00085E083BF89B7816089BF7894C09810E0CB
:1001D00000E0FF24F39480917C0081FFFCCF82E05B
:1001E0002DD18B3F910508F44DC08D3F910508F04E
:1001F000959A80E023D1EC0182E020D18C179D07F5
:10020000B4F4112331F01F7C98B3812F8C6F8923B4
:1002100088BB86B380917C0080FFDDCF8F2D1FDFF0
:10022000F82E80917C008E7F80937C00D4CF82E07A
:1002300005D1EC0180E002D18C179D0764F69C99F2
:10024000AC98002321F410FF22C01E7FC49811FF38
:100250001BC01D7FC59820917D0030917E002D32FE
:10026000310511F001E0B7CF80917C0080FFFACF1B
:100270008F2DF5DEF82E80917C008E7F80937C00A0
:1002800001E0A9CFAD98B5CF1260C59AE4CF116057
:10029000C49ADDCFAF92BF92DF92EF92FF920F939D
:1002A0001F93DF93CF93CDB7DEB764970FB6F89463
:1002B000DEBF0FBECDBF082FD62EB29B76C0662301
:1002C00009F488C0002309F076C080E061E010D214
:1002D00080E690E03ED289E061E00AD286E690E0D6
:1002E00038D280E0ABD08C01000F111F080F191F0E
:1002F000000F111F000F111F000F111F080F191FF2
:1003000080E062E0F5D1F8EEAF2EF3E0BF2EC80139
:10031000B50146D27C01CB018E010F5F1F4FB801A2
:100320004AE050E08ED2C80114D28CE267D1C701F6
:10033000B8014AE050E085D2C8010BD282E07ED0FD
:100340007C01EE0CFF1CE80EF91EEE0CFF1CEE0CFF
:10035000FF1CEE0CFF1CE80EF91E89E062E0C8D11C
:10036000C701B5011DD27C01CB01B8014AE050E0C4
:1003700068D2C801EED18CE241D1C701B8014AE090
:1003800050E05FD2C801E5D18D2D64960FB6F89488
:10039000DEBF0FBECDBFCF91DF911F910F91FF90B8
:1003A000EF90DF90BF90AF900895662369F388E0E7
:1003B00044D1DD24E9CF013039F780E061E098D104
:1003C00081E790E0C6D189E061E092D187E790E0D3
:1003D000C0D1DACF8CE031D1DD24D394002309F4ED
:1003E00074CFE9CF1F920F920FB60F9211248F9303
:1003F00080917C00826080937C008F910F900FBE73
:100400000F901F90189582E019D08B3F910528F02E
:100410008D3F910508F0959A0895AD98089580EC68
:1004200087B986E086B9379A369A3699FECF84B175
:1004300095B10895379A08953798089597B18F71B7
:10044000907E892B87B9369A3699FECF24B135B183
:10045000C90108950F931F93562F662319F1E82FB2
:10046000EF7140E060E070E0CB0137B1307E3E2BB1
:1004700037B9369A3699FECF04B115B1222717FD48
:100480002095322F600F711F821F931F4F5F4517FA
:1004900060F3252F30E040E050E096D1C9011F9174
:1004A0000F91089560E070E0CB01F3CF81B38F63CB
:1004B00081BB82B3807C82BB87EC9FEA0197F1F716
:1004C00000C0000082B3807F82BB82B3836082BBA6
:1004D000959A94E09A95F1F7959887E99AE30197B0
:1004E000F1F700C00000959A94E09A95F1F795987D
:1004F00087EB9BE00197F1F700C00000959A94E02C
:100500009A95F1F7959887EB9BE00197F1F700C07A
:10051000000082B3807F82BB919A959A94E09A956D
:10052000F1F7959887E99AE30197F1F700C0000089
:10053000949882B3807F82BB919A959A94E09A9521
:10054000F1F7959882B3807F82BB939A959A84E065
:100550008A95F1F7959898EA9A95F1F7949882B36D
:10056000807F82BB82B382BB959A84E08A95F1F743
:10057000959882B3807F82BB82B38C6082BB959A50
:1005800094E09A95F1F7959888EA8A95F1F794980E
:1005900082B3807F82BB82B382BB959A94E09A95A6
:1005A000F1F7959882B3807F82BB82B3866082BB6D
:1005B000959A84E08A95F1F7959898EA9A95F1F7DB
:1005C000949882B3807F82BB82B382BB959A84E089
:1005D0008A95F1F7959882B3807F82BB909A959A1D
:1005E00094E09A95F1F7959888EA8A95F1F78FE665
:1005F00097E10197F1F700C000000895949A92B333
:10060000907F92BB22B3982F92959F70922B92BBB2
:10061000959A94E09A95F1F7959892B3907F92BB52
:1006200092B38F70892B82BB959A84E08A95F1F7FB
:10063000959898EB9A95F1F70895949892B3907FD6
:1006400092BB22B3982F92959F70922B92BB959A52
:1006500094E09A95F1F7959892B3907F92BB92B3FC
:100660008F70892B82BB959A84E08A95F1F79598D3
:1006700098EA9A95F1F70895949882B3807F82BBA7
:1006800082B382BB959A84E08A95F1F7959882B3FC
:10069000807F82BB909A959A94E09A95F1F795980D
:1006A00088EA8A95F1F78FE697E10197F1F700C0A4
:1006B00000000895949882B3807F82BB82B382BB8E
:1006C000959A84E08A95F1F7959882B3807F82BBF2
:1006D000919A959A94E09A95F1F7959888EA8A9577
:1006E000F1F78FE697E10197F1F700C00000089558
:1006F000623059F1633028F0633049F1643019F108
:1007000008956130E9F78058949892B3907F92BB36
:1007100022B3982F92959F70922B92BB959A94E05A
:100720009A95F1F7959892B3907F92BB92B38F70A0
:10073000892B82BB959A84E08A95F1F7959898EA7F
:100740009A95F1F708958053DFCF8054DDCF80571D
:10075000DBCFFC018081882311F13196949A92B30A
:10076000907F92BB22B3982F92959F70922B92BB51
:10077000959A94E09A95F1F7959892B3907F92BBF1
:1007800092B38F70892B82BB959A84E08A95F1F79A
:10079000959898EB9A95F1F781918823F9F6089549
:1007A000AA1BBB1B51E107C0AA1FBB1FA617B70797
:1007B00010F0A61BB70B881F991F5A95A9F78095B3
:1007C0009095BC01CD01089597FB092E05260ED00A
:1007D00057FD04D014D00AD0001C38F45095409531
:1007E000309521953F4F4F4F5F4F0895F6F7909505
:1007F0008095709561957F4F8F4F9F4F0895A1E22F
:100800001A2EAA1BBB1BFD010DC0AA1FBB1FEE1F8A
:10081000FF1FA217B307E407F50720F0A21BB30BD5
:10082000E40BF50B661F771F881F991F1A9469F751
:1008300060957095809590959B01AC01BD01CF01AD
:100840000895FB019F01E8944230BCF04532ACF4BE
:100850004A3029F497FB1EF4909581959F4F642FA1
:1008600077279EDF805D8A330CF0895D8193CB0111
:100870000097A9F716F45DE251931082C90100C0F8
:10088000DC01FC01672F71917723E1F7329704C0F7
:100890007C916D9370836291AE17BF07C8F3089582
:0408A000F894FFCFFA
:1008A400555F536F6C00555F4261740054657374F7
:0C08B400004C616D7065005A65697400AD
:00000001FF
