:1000000012C02CC02BC02AC029C028C027C026C0BF
:1000100025C0BEC123C022C021C020C01FC01EC039
:100020001DC01CC01BC011241FBECFE5D4E0DEBF25
:10003000CDBF10E0A0E6B0E0E6E8F8E002C0059031
:100040000D92A239B107D9F710E0A2E9B0E001C0E2
:100050001D92A739B107E1F7F5D013C4D1CFAF9204
:10006000BF92DF92EF92FF920F931F93DF93CF9394
:10007000CDB7DEB764970FB6F894DEBF0FBECDBF25
:10008000082FD62EB29B76C0662309F4C2C0002387
:1000900009F076C080E061E01CD380E690E04AD3AE
:1000A00089E061E016D386E690E044D380E0B7D1E2
:1000B0008C01000F111F080F191F000F111F000FD7
:1000C000111F000F111F080F191F80E062E001D3FC
:1000D00068EEA62E63E0B62EC801B50152D37C01AE
:1000E000CB018E010F5F1F4FB8014AE050E09AD359
:1000F000C80120D38CE273D2C701B8014AE050E0B6
:1001000091D3C80117D382E08AD17C01EE0CFF1C89
:10011000E80EF91EEE0CFF1CEE0CFF1CEE0CFF1C93
:10012000E80EF91E89E062E0D4D2C701B50129D3F7
:100130007C01CB01B8014AE050E074D3C801FAD287
:100140008CE24DD2C701B8014AE050E06BD3C80140
:10015000F1D28D2D64960FB6F894DEBF0FBECDBFE1
:10016000CF91DF911F910F91FF90EF90DF90BF90A3
:10017000AF900895662369F388E050D2DD24E9CF7B
:10018000013039F780E061E0A4D286E690E0D2D277
:1001900082E045D18C01000F111F080F191F000FBD
:1001A000111F000F111F000F111F080F191F80E0F2
:1001B00062E08FD2C80168EE73E0E3D27C01CB012C
:1001C0008E010F5F1F4FB8014AE050E02BD3C801EA
:1001D000B1D28CE204D2C701B8014AE050E022D388
:1001E000C801A8D289E061E074D28CE690E0A2D286
:1001F00089E062E06ED28091930080738031F1F0EB
:10020000813178F4882309F0A4CF82E790E092D27C
:10021000A0CF8CE003D2DD24D394002309F43ACF9D
:10022000AFCF803239F0803309F093CF8EE790E082
:1002300081D28FCF8BE790E07DD28BCF88E790E0A3
:1002400079D287CF0F931F93CF93DF9387B3827CAD
:10025000896387BB84B3806384BB81B38F7381BBA5
:10026000CFD015D18FEB94EDA1E081509040A0400C
:10027000E1F700C000008FE0D1D186E890E05AD2CB
:1002800085E083BF89B7816089BF7894C09800E01A
:1002900011E08091920081FFFCCF82E0C0D08B3FC3
:1002A000910508F45BC08D3F910508F0959A80E0B8
:1002B000B6D0EC0182E0B3D08C179D07FCF480919E
:1002C0009300882359F0809193008F7C8093930052
:1002D00098B3809193008C6F892388BBB09BC09AA0
:1002E0008091920080FFD5CF80E0612FB8DE182F7B
:1002F000809192008E7F80939200CBCF82E08FD04E
:10030000EC0180E08CD08C179D071CF69C99AC9872
:10031000002351F48091930080FD2FC080919300C1
:10032000816080939300C49A8091930081FD1AC0EC
:1003300080919300826080939300C59A80E061E091
:10034000C8D18091920080FF0BC08CE890E0F2D180
:1003500081E0612F84DE182F01E09BCFAD98A7CFFD
:1003600001E097CF8091930081FFE8CF80919300C7
:100370008D7F80939300C598E1CF8091930080FF9B
:10038000D3CF809193008E7F80939300C498CCCF7D
:100390001F920F920FB60F9211242F938F939F935A
:1003A000809196008E32B9F0282F2F5F822F90E037
:1003B00020939600909395008093940080919200F2
:1003C0008260809392009F918F912F910F900FBE2A
:1003D0000F901F90189580919200816080939200F9
:1003E00081E090E021E0E4CF82E019D08B3F9105DD
:1003F00028F08D3F910508F0959A0895AD980895DD
:1004000080EC87B986E086B9379A369A3699FECF5E
:1004100084B195B10895379A08953798089597B1A2
:100420008F71907E892B87B9369A3699FECF24B189
:1004300035B1C90108950F931F93562F662319F103
:10044000E82FEF7140E060E070E0CB0137B1307E23
:100450003E2B37B9369A3699FECF04B115B1222713
:1004600017FD2095322F600F711F821F931F4F5F62
:10047000451760F3252F30E040E050E096D1C901E8
:100480001F910F91089560E070E0CB01F3CF81B32D
:100490008F6381BB82B3807C82BB87EC9FEA01972C
:1004A000F1F700C0000082B3807F82BB82B383601B
:1004B00082BB959A94E09A95F1F7959887E99AE32B
:1004C0000197F1F700C00000959A94E09A95F1F732
:1004D000959887EB9BE00197F1F700C00000959A93
:1004E00094E09A95F1F7959887EB9BE00197F1F7E7
:1004F00000C0000082B3807F82BB919A959A94E0FD
:100500009A95F1F7959887E99AE30197F1F700C07A
:100510000000949882B3807F82BB919A959A94E070
:100520009A95F1F7959882B3807F82BB939A959ABA
:1005300084E08A95F1F7959898EA9A95F1F794985E
:1005400082B3807F82BB82B382BB959A84E08A9516
:10055000F1F7959882B3807F82BB82B38C6082BBB7
:10056000959A94E09A95F1F7959888EA8A95F1F72B
:10057000949882B3807F82BB82B382BB959A94E0C9
:100580009A95F1F7959882B3807F82BB82B386609B
:1005900082BB959A84E08A95F1F7959898EA9A95A6
:1005A000F1F7949882B3807F82BB82B382BB959A25
:1005B00084E08A95F1F7959882B3807F82BB909A08
:1005C000959A94E09A95F1F7959888EA8A95F1F7CB
:1005D0008FE697E10197F1F700C000000895949A23
:1005E00092B3907F92BB22B3982F92959F70922BDB
:1005F00092BB959A94E09A95F1F7959892B3907F73
:1006000092BB92B38F70892B82BB959A84E08A95B6
:10061000F1F7959898EB9A95F1F70895949892B31D
:10062000907F92BB22B3982F92959F70922B92BB92
:10063000959A94E09A95F1F7959892B3907F92BB32
:1006400092B38F70892B82BB959A84E08A95F1F7DB
:10065000959898EA9A95F1F70895949882B3807FD7
:1006600082BB82B382BB959A84E08A95F1F7959814
:1006700082B3807F82BB909A959A94E09A95F1F725
:10068000959888EA8A95F1F78FE697E10197F1F757
:1006900000C000000895949882B3807F82BB82B32B
:1006A00082BB959A84E08A95F1F7959882B3807F12
:1006B00082BB919A959A94E09A95F1F7959888EA79
:1006C0008A95F1F78FE697E10197F1F700C00000F6
:1006D0000895623059F1633028F0633049F1643095
:1006E00019F108956130E9F78058949892B3907F9A
:1006F00092BB22B3982F92959F70922B92BB959AA2
:1007000094E09A95F1F7959892B3907F92BB92B34B
:100710008F70892B82BB959A84E08A95F1F7959822
:1007200098EA9A95F1F708958053DFCF8054DDCF92
:100730008057DBCFFC018081882311F13196949A98
:1007400092B3907F92BB22B3982F92959F70922B79
:1007500092BB959A94E09A95F1F7959892B3907F11
:1007600092BB92B38F70892B82BB959A84E08A9555
:10077000F1F7959898EB9A95F1F781918823F9F61E
:100780000895AA1BBB1B51E107C0AA1FBB1FA617D8
:10079000B70710F0A61BB70B881F991F5A95A9F72A
:1007A00080959095BC01CD01089597FB092E0526F3
:1007B0000ED057FD04D014D00AD0001C38F4509548
:1007C0004095309521953F4F4F4F5F4F0895F6F775
:1007D00090958095709561957F4F8F4F9F4F0895AD
:1007E000A1E21A2EAA1BBB1BFD010DC0AA1FBB1F35
:1007F000EE1FFF1FA217B307E407F50720F0A21BA7
:10080000B30BE40BF50B661F771F881F991F1A9413
:1008100069F760957095809590959B01AC01BD013D
:10082000CF010895FB019F01E8944230BCF04532AE
:10083000ACF44A3029F497FB1EF4909581959F4FB4
:10084000642F77279EDF805D8A330CF0895D81936A
:10085000CB010097A9F716F45DE251931082C9010C
:1008600000C0DC01FC01672F71917723E1F732971B
:1008700004C07C916D9370836291AE17BF07C8F37B
:060880000895F894FFCF7B
:10088600555F536F6C00555F426174004C616D702B
:1008960065006B65696E65004C31004C32004C3169
:1008A6002026204C32005465737432006E5F744308
:0208B600000040
:00000001FF
