:1000000012C02CC02BC02AC029C028C027C026C0BF
:1000100025C0BFC223C022C021C020C01FC01EC037
:100020001DC01CC01BC011241FBECFE5D4E0DEBF25
:10003000CDBF10E0A0E6B0E0ECE1FDE002C005902D
:100040000D92A237B107D9F710E0A2E7B0E001C0E6
:100050001D92A537B107E1F794D05EC6D1CFAF921C
:10006000BF92DF92EF92FF920F931F93DF93CF9394
:10007000CDB7DEB764970FB6F894DEBF0FBECDBF25
:10008000D82EB29B73C0882309F476C080E061E06B
:100090006BD580E690E099D589E061E065D586E68C
:1000A00090E093D580E006D48C01000F111F080F5B
:1000B000191F000F111F000F111F000F111F080F34
:1000C000191F80E062E050D548EEA42E43E0B42E24
:1000D000C801B501A1D57C01CB018E010F5F1F4F77
:1000E000B8014AE050E0E9D5C8016FD58CE2C2D42E
:1000F000C701B8014AE050E0E0D5C80166D582E00A
:10010000D9D37C01EE0CFF1CE80EF91EEE0CFF1C8F
:10011000EE0CFF1CEE0CFF1CE80EF91E89E062E0FD
:1001200023D5C701B50178D57C01CB01B8014AE0E0
:1001300050E0C3D5C80149D58CE29CD4C701B801B1
:100140004AE050E0BAD5C80140D58D2D64960FB66F
:10015000F894DEBF0FBECDBFCF91DF911F910F91FD
:10016000FF90EF90DF90BF90AF900895882369F3E0
:1001700088E09FD4DD24E9CF8CE09BD4DD24D394A8
:1001800085CF3F924F925F926F927F928F929F9214
:10019000AF92BF92CF92DF92EF92FF920F931F9395
:1001A000CF93DF9387B3827C896387BB84B38063FB
:1001B00084BB81B38F7381BB6ED3B4D38FEB94EDCB
:1001C000A1E081509040A040E1F700C000008FE026
:1001D00070D48CE690E0F9D489E685BD85E083BFD4
:1001E00089B7816089BF88EC83BD7894C098CC249E
:1001F0007724662444244394C3E7D0E03324339423
:100200007EEF572E8091730090917400BE0104D54B
:100210000097C1F782E04ED38B3F910508F409C1E6
:100220008D3F910508F0959A80E044D38C0182E0DF
:1002300041D3801791070CF0C6C0CC2019F088B3C9
:100240008F7C88BB82E036D3AFEF8F3F9A0709F4EB
:10025000F2C086B380E02ED38C0181E02BD323B58E
:100260002B3F18F423B52C5F23BD809F4001819F55
:10027000900C909F900C1124AA2497FCA094BA2C67
:100280008FE295E70197F1F700C0000080E012D3FC
:100290008C0181E00FD3809F6001819FD00C909FE3
:1002A000D00C1124EE24D7FCE094FE2C8C149D0479
:1002B000AE04BF0408F46EC083B5893018F083B56E
:1002C000885083BD8FE295E70197F1F700C00000E9
:1002D00080E0F0D28C0181E0EDD2809F6001819FAF
:1002E000D00C909FD00C1124EE24D7FCE094FE2C6F
:1002F0008C149D04AE04BF0430F180917300909182
:1003000074008D32910509F450C0CC247BCF83B5A5
:10031000815083BD80E0CED28C0181E0CBD29C01A4
:10032000209FC001219F900D309F900D1124AA277E
:1003300097FDA095BA2F8C159D05AE05BF0508F455
:1003400089C06C017D01AFE5BAEE1197F1F700C0ED
:10035000000083B58230D8F633BCDCCF83B58F5F25
:1003600083BD80E0A7D28C0181E0A4D29C01209FB4
:10037000C001219F900D309F900D1124AA2797FD59
:10038000A095BA2F8C159D05AE05BF0508F466C073
:100390006C017D01AFE5BAEE1197F1F700C00000E6
:1003A00083B58E3FD8F253BCDCCF8091720080FFC2
:1003B000ACCF842D54DE482E809172008E7F8093C6
:1003C0007200CC241FCF82E075D28C0180E072D203
:1003D000801791070CF016CF86B38E7F09F0C09876
:1003E0009C99AC98662039F4C0FE28C08EEFC822D4
:1003F000C49866246394772039F4C1FE25C0ADEF1C
:10040000CA22C598772473948091730090917400E8
:100410008D32910509F0F6CE8091720080FFF2CE08
:10042000842D1DDE482E809172008E7F8093720095
:10043000E9CEAD98F9CEC098CC24E4CE31E0C32A01
:10044000C49A66246394D7CF92E0C92AC59A7724C8
:100450007394DACF83B58F5F83BD4FCF83B581505F
:1004600083BD4BCFCF92DF92EF92FF920F931F93FA
:10047000DF93CF93CDB7DEB765970FB6F894DEBFA5
:100480000FBECDBF082F262FB29B77C0662309F47D
:100490007AC0002309F061C080E061E02D8B64D355
:1004A00080E690E092D389E061E05ED386E690E05A
:1004B0008CD380E0FFD18C01000F111F080F191F92
:1004C000000F111F000F111F000F111F080F191F20
:1004D00080E062E049D3A8EECA2EA3E0DA2EC8017C
:1004E000B6019AD37C01CB018E010F5F1F4FB8017B
:1004F0004AE050E0E2D3C80168D38CE2BBD2C70126
:10050000B8014AE050E0D9D3C8015FD382E0D2D12C
:100510007C01EE0CFF1CE80EF91EEE0CFF1CEE0C2D
:10052000FF1CEE0CFF1CE80EF91E89E062E01CD3F4
:10053000C701B60171D37C01CB01B8014AE050E09C
:10054000BCD3C80142D38CE295D2C701B8014AE0BE
:1005500050E0B3D3C80139D32D89822F65960FB6E9
:10056000F894DEBF0FBECDBFCF91DF911F910F91E9
:10057000FF90EF90DF90CF900895662371F388E0AD
:1005800098D220E0EACF8CE094D221E0002329F732
:1005900083CF1F920F920FB60F9211248F939F93C8
:1005A00081E090E0909374008093730080917200DA
:1005B0008360809372009F918F910F900FBE0F9078
:1005C0001F901895CF93DF9380E074D1EC0181E008
:1005D00071D18C9F90018D9F300D9C9F300D112407
:1005E000442737FD4095542FB901CA01DF91CF91BF
:1005F0000895AF92BF92CF92DF92EF92FF920F9346
:100600001F93CF93DF9380E055D1EC0181E052D16D
:100610008C9F50018D9FB00C9C9FB00C1124CC245A
:10062000B7FCC094DC2C83B58B3F18F483B58C5F8A
:1006300083BD8FE295E70197F1F700C0000080E0ED
:1006400039D1EC0181E036D18C9F70018D9FF00C87
:100650009C9FF00C11240027F7FC0095102FAE147E
:10066000BF04C006D10608F459C083B5893018F01C
:1006700083B5885083BD8FE295E70197F1F700C0FD
:10068000000080E017D1EC0181E014D18C9F700153
:100690008D9FF00C9C9FF00C11240027F7FC009517
:1006A000102FAE14BF04C006D10658F0DF91CF91D1
:1006B0001F910F91FF90EF90DF90CF90BF90AF9080
:1006C0000895DD24D3941BC083B5815083BD80E0A1
:1006D000F1D05C0181E0EED09C012A9DC0012B9DF0
:1006E000900D3A9D900D1124AA2797FDA095BA2F41
:1006F0008E159F05A007B10768F07C018D018FE57D
:100700009AEE0197F1F700C0000083B58230E0F661
:10071000D3BCDDCF83B58F5F83BDC8CF3EEFD32E73
:100720001BC083B58F5F83BD80E0C4D05C0181E0D6
:10073000C1D09C012A9DC0012B9D900D3A9D900D2A
:100740001124AA2797FDA095BA2F8E159F05A00703
:10075000B10768F07C018D018FE59AEE0197F1F702
:1007600000C0000083B58E3FE0F2D3BCDDCF83B57F
:10077000815083BD9BCFDF92EF92FF920F931F9327
:10078000CF93DF937B018C014EEFD42E1BC083B53A
:100790008F5F83BD80E08ED0EC0181E08BD09C0127
:1007A0002C9FC0012D9F900D3C9F900D1124AA27D6
:1007B00097FDA095BA2F8E159F05A007B10768F089
:1007C0007C018D018FE59AEE0197F1F700C00000E2
:1007D00083B58E3FE0F2D3BCDDCF83B5815083BDBE
:1007E000DF91CF911F910F91FF90EF90DF900895CF
:1007F000DF92EF92FF920F931F93CF93DF937B01D2
:100800008C01DD24D3941BC083B5815083BD80E06F
:1008100051D0EC0181E04ED09C012C9FC0012D9F56
:10082000900D3C9F900D1124AA2797FDA095BA2FFB
:100830008E159F05A007B10768F07C018D018FE53B
:100840009AEE0197F1F700C0000083B58230E0F620
:10085000D3BCDDCF83B58F5F83BDDF91CF911F9177
:100860000F91FF90EF90DF90089582E023D08B3FAF
:10087000910528F08D3F910508F0959A0895AD985F
:10088000089582E017D021E03FEF8F3F930709F0F2
:1008900020E0822F089580EC87B986E086B9379AE8
:1008A000369A3699FECF84B195B10895379A089556
:1008B0003798089597B18F71907E892B87B9369AB2
:1008C0003699FECF24B135B1C90108950F931F9316
:1008D000562F662319F1E82FEF7140E060E070E0D9
:1008E000CB0137B1307E3E2B37B9369A3699FECFE1
:1008F00004B115B1222717FD2095322F600F711F0B
:10090000821F931F4F5F451760F3252F30E040E0B3
:1009100050E096D1C9011F910F91089560E070E0F9
:10092000CB01F3CF81B38F6381BB82B3807C82BB69
:1009300087EC9FEA0197F1F700C0000082B3807F47
:1009400082BB82B3836082BB959A94E09A95F1F75B
:10095000959887E99AE30197F1F700C00000959A0E
:1009600094E09A95F1F7959887EB9BE00197F1F762
:1009700000C00000959A94E09A95F1F7959887EB5E
:100980009BE00197F1F700C0000082B3807F82BB3B
:10099000919A959A94E09A95F1F7959887E99AE358
:1009A0000197F1F700C00000949882B3807F82BB6A
:1009B000919A959A94E09A95F1F7959882B3807FF1
:1009C00082BB939A959A84E08A95F1F7959898EA74
:1009D0009A95F1F7949882B3807F82BB82B382BBF1
:1009E000959A84E08A95F1F7959882B3807F82BBCF
:1009F00082B38C6082BB959A94E09A95F1F79598B2
:100A000088EA8A95F1F7949882B3807F82BB82B39B
:100A100082BB959A94E09A95F1F7959882B3807F7E
:100A200082BB82B3866082BB959A84E08A95F1F797
:100A3000959898EA9A95F1F7949882B3807F82BB53
:100A400082B382BB959A84E08A95F1F7959882B338
:100A5000807F82BB909A959A94E09A95F1F7959849
:100A600088EA8A95F1F78FE697E10197F1F700C0E0
:100A700000000895949A92B3907F92BB22B3982F6E
:100A800092959F70922B92BB959A94E09A95F1F76C
:100A9000959892B3907F92BB92B38F70892B82BB53
:100AA000959A84E08A95F1F7959898EB9A95F1F7E5
:100AB0000895949892B3907F92BB22B3982F929509
:100AC0009F70922B92BB959A94E09A95F1F7959826
:100AD00092B3907F92BB92B38F70892B82BB959A11
:100AE00084E08A95F1F7959898EA9A95F1F7089538
:100AF000949882B3807F82BB82B382BB959A84E054
:100B00008A95F1F7959882B3807F82BB909A959AE7
:100B100094E09A95F1F7959888EA8A95F1F78FE62F
:100B200097E10197F1F700C000000895949882B30F
:100B3000807F82BB82B382BB959A84E08A95F1F76D
:100B4000959882B3807F82BB919A959A94E09A950A
:100B5000F1F7959888EA8A95F1F78FE697E1019782
:100B6000F1F700C000000895623059F1633028F0B9
:100B7000633049F1643019F108956130E9F7805824
:100B8000949892B3907F92BB22B3982F92959F70C6
:100B9000922B92BB959A94E09A95F1F7959892B31F
:100BA000907F92BB92B38F70892B82BB959A84E021
:100BB0008A95F1F7959898EA9A95F1F708958053F8
:100BC000DFCF8054DDCF8057DBCFFC0180818823CD
:100BD00011F13196949A92B3907F92BB22B3982FE1
:100BE00092959F70922B92BB959A94E09A95F1F70B
:100BF000959892B3907F92BB92B38F70892B82BBF2
:100C0000959A84E08A95F1F7959898EB9A95F1F783
:100C100081918823F9F60895AA1BBB1B51E107C0F7
:100C2000AA1FBB1FA617B70710F0A61BB70B881F7C
:100C3000991F5A95A9F780959095BC01CD0108950B
:100C400097FB092E05260ED057FD04D014D00AD0EC
:100C5000001C38F450954095309521953F4F4F4FEB
:100C60005F4F0895F6F790958095709561957F4F49
:100C70008F4F9F4F0895A1E21A2EAA1BBB1BFD01A7
:100C80000DC0AA1FBB1FEE1FFF1FA217B307E4076B
:100C9000F50720F0A21BB30BE40BF50B661F771FC3
:100CA000881F991F1A9469F76095709580959095A3
:100CB0009B01AC01BD01CF010895FB019F01E894A8
:100CC0004230BCF04532ACF44A3029F497FB1EF4B4
:100CD000909581959F4F642F77279EDF805D8A33A3
:100CE0000CF0895D8193CB010097A9F716F45DE2C2
:100CF00051931082C90100C0DC01FC01672F719182
:100D00007723E1F7329704C07C916D9370836291F1
:0C0D1000AE17BF07C8F30895F894FFCF9A
:100D1C00555F536F6C00555F42617400546573747A
:020D2C000000C5
:00000001FF
