:1000000012C02CC02BC02AC029C028C027C026C0BF
:1000100025C095C123C022C021C020C01FC01EC062
:100020001DC01CC01BC011241FBECFE5D4E0DEBF25
:10003000CDBF10E0A0E6B0E0EAE5FBE002C005902D
:100040000D92A237B107D9F710E0A2E7B0E001C0E6
:100050001D92A537B107E1F767D27DC5D1CF80ECFE
:1000600087B986E086B9379A369A3699FECF84B139
:1000700095B10895379A08953798089597B18F717B
:10008000907E892B87B9369A3699FECF24B135B147
:10009000C90108950F931F93562F662319F1E82F76
:1000A000EF7140E060E070E0CB0137B1307E3E2B75
:1000B00037B9369A3699FECF04B115B1222717FD0C
:1000C0002095322F600F711F821F931F4F5F4517BE
:1000D00060F3252F30E040E050E0D1D4C9011F91FA
:1000E0000F91089560E070E0CB01F3CFAF92BF9223
:1000F000DF92EF92FF920F931F93DF93CF93CDB7D1
:10010000DEB764970FB6F894DEBF0FBECDBFD82E12
:10011000B29B73C0882309F476C080E061E043D4C9
:1001200080E690E071D489E061E03DD486E690E01D
:100130006BD480E0A3DF8C01000F111F080F191F83
:10014000000F111F000F111F000F111F080F191FA3
:1001500080E062E028D448EEA42E43E0B42EC8012B
:10016000B50179D47C01CB018E010F5F1F4FB8011F
:100170004AE050E0C1D4C80147D48CE29AD3C70109
:10018000B8014AE050E0B8D4C8013ED482E076DF3E
:100190007C01EE0CFF1CE80EF91EEE0CFF1CEE0CB1
:1001A000FF1CEE0CFF1CE80EF91E89E062E0FBD399
:1001B000C701B50150D47C01CB01B8014AE050E041
:1001C0009BD4C80121D48CE274D3C701B8014AE0A2
:1001D00050E092D4C80118D48D2D64960FB6F894CF
:1001E000DEBF0FBECDBFCF91DF911F910F91FF906A
:1001F000EF90DF90BF90AF900895882369F388E077
:1002000077D3DD24E9CF8CE073D3DD24D39485CF7D
:10021000CF92DF92EF92FF920F931F93DF93CF93D2
:10022000CDB7DEB765970FB6F894DEBF0FBECDBF72
:10023000082F262FB29B77C0662309F47AC00023CB
:1002400009F061C080E061E02D8BADD380E690E0E5
:10025000DBD389E061E0A7D386E690E0D5D380E0E8
:100260000DDF8C01000F111F080F191F000F111F48
:10027000000F111F000F111F080F191F80E062E00F
:1002800092D3F8EECF2EF3E0DF2EC801B601E3D310
:100290007C01CB018E010F5F1F4FB8014AE050E097
:1002A0002BD4C801B1D38CE204D3C701B8014AE012
:1002B00050E022D4C801A8D382E0E0DE7C01EE0C3D
:1002C000FF1CE80EF91EEE0CFF1CEE0CFF1CEE0CE2
:1002D000FF1CE80EF91E89E062E065D3C701B60194
:1002E000BAD37C01CB01B8014AE050E005D4C80183
:1002F0008BD38CE2DED2C701B8014AE050E0FCD3D8
:10030000C80182D32D89822F65960FB6F894DEBF7F
:100310000FBECDBFCF91DF911F910F91FF90EF9056
:10032000DF90CF900895662371F388E0E1D220E05A
:10033000EACF8CE0DDD221E0002329F783CF1F92A2
:100340000F920FB60F9211248F93809174008F5FDC
:100350008093740080937200809173008360809317
:1003600073008F910F900FBE0F901F901895CF9331
:10037000DF9380E083DEEC0181E080DE9C012C9F36
:10038000C0012D9F900D3C9F900D1124BC0180E079
:1003900090E0DF91CF9108956F927F928F929F921C
:1003A000AF92BF92CF92DF92EF92FF920F931F9383
:1003B000CF93DF9380E062DEEC0181E05FDE8C9F13
:1003C00030018D9F700C9C9F700C112488249924FF
:1003D00083B58E3F18F483B58F5F83BD8FE295E7B9
:1003E0000197F1F700C0000080E048DEEC0181E0F9
:1003F00045DE8C9F70018D9FF00C9C9FF00C1124AA
:1004000000E010E083B5833018F083B5825083BDDF
:100410008FE295E70197F1F700C0000080E02EDE43
:10042000EC0181E02BDE8C9F50018D9FB00C9C9FD6
:10043000B00C1124CC24DD246E147F0480069106B8
:1004400030F4EA14FB040C051D0508F042C06A14E0
:100450007B048C049D0490F083B58F5F83BDDF9196
:10046000CF911F910F91FF90EF90DF90CF90BF90B1
:10047000AF909F908F907F906F900895EA14FB0447
:100480000C051D0548F711E019C083B5815083BDE7
:1004900080E0F4DDEC0181E0F1DD9C012C9FC001E6
:1004A0002D9F900D3C9F900D1124A0E0B0E08A1587
:1004B0009B05AC05BD0580F25C016D018FE59AEEF0
:1004C0000197F1F700C0000083B58230F0F613BD4C
:1004D000DFCF8EEFA82E19C083B58F5F83BD80E07C
:1004E000CDDDEC0181E0CADD9C012C9FC0012D9F78
:1004F000900D3C9F900D1124A0E0B0E08E159F055B
:10050000A007B10768F07C018D018FE59AEE019795
:10051000F1F700C0000083B58E3FF0F2A3BCDFCF3F
:1005200083B5815083BD9BCFEF92FF920F931F93B2
:10053000CF93DF9387B3827C896387BB84B3806367
:1005400084BB81B38F7381BB8ADD0BD18FEB94EDBC
:10055000A1E081509040A040E1F700C000008FE092
:10056000C7D18CE690E050D289E685BD85E083BF97
:1005700089B7816089BF789488EC83BD10E0FF243F
:1005800000E0EE24E39482E079DD8B3F9105F0F00A
:100590008D3F910508F0959A80E070DDEC0182E0D6
:1005A0006DDD8C179D0714F5B09BC09A112319F0CF
:1005B00088B38F7C88BBF0DE809172008D3241F071
:1005C00010E082E05BDD8B3F910510F7AD98E4CF42
:1005D0008091730080FFF4CF8E2D88DDE82E80910E
:1005E00073008E7F8093730010E0CDCF82E046DDF4
:1005F000EC0180E043DD8C179D072CF686B38E7FDF
:1006000009F0C0989C99AC98002329F410FF22C0EF
:100610001E7FC49801E0FF2031F411FF16C01D7F3A
:10062000C598FF24F394809172008D3209F0ABCF0E
:100630008091730080FFA7CF8E2D58DDE82E80912A
:1006400073008E7F809373009ECF1260C59AFF2443
:10065000F394E9CF1160C49A01E0DDCFDF92EF920D
:10066000FF920F931F93CF93DF937B018C019EEF3B
:10067000D92E19C083B58F5F83BD80E0FFDCEC010C
:1006800081E0FCDC9C012C9FC0012D9F900D3C9FC4
:10069000900D1124A0E0B0E08E159F05A007B107D2
:1006A00068F07C018D018FE59AEE0197F1F700C0AB
:1006B000000083B58E3FF0F2D3BCDFCF83B581500D
:1006C00083BDDF91CF911F910F91FF90EF90DF904D
:1006D0000895DF92EF92FF920F931F93CF93DF93D2
:1006E0007B018C01DD24D39419C083B5815083BD77
:1006F00080E0C4DCEC0181E0C1DC9C012C9FC001E6
:100700002D9F900D3C9F900D1124A0E0B0E08E1520
:100710009F05A007B10768F07C018D018FE59AEE77
:100720000197F1F700C0000083B58230F0F6D3BC2A
:10073000DFCF83B58F5F83BDDF91CF911F910F9185
:10074000FF90EF90DF90089582E098DC8B3F910559
:1007500028F08D3F910508F0959A0895AD98089579
:10076000089581B38F6381BB82B3807C82BB87ECA9
:100770009FEA0197F1F700C0000082B3807F82BB3F
:1007800082B3836082BB959A94E09A95F1F795982D
:1007900087E99AE30197F1F700C00000959A94E089
:1007A0009A95F1F7959887EB9BE00197F1F700C0D8
:1007B0000000959A94E09A95F1F7959887EB9BE065
:1007C0000197F1F700C0000082B3807F82BB919A4D
:1007D000959A94E09A95F1F7959887E99AE30197AD
:1007E000F1F700C00000949882B3807F82BB919A99
:1007F000959A94E09A95F1F7959882B3807F82BBA1
:10080000939A959A84E08A95F1F7959898EA9A9543
:10081000F1F7949882B3807F82BB82B382BB959AB2
:1008200084E08A95F1F7959882B3807F82BB82B38A
:100830008C6082BB959A94E09A95F1F7959888EA36
:100840008A95F1F7949882B3807F82BB82B382BB92
:10085000959A94E09A95F1F7959882B3807F82BB40
:1008600082B3866082BB959A84E08A95F1F7959869
:1008700098EA9A95F1F7949882B3807F82BB82B30D
:1008800082BB959A84E08A95F1F7959882B3807F30
:1008900082BB909A959A94E09A95F1F7959888EA98
:1008A0008A95F1F78FE697E10197F1F700C0000014
:1008B0000895949A92B3907F92BB22B3982F929509
:1008C0009F70922B92BB959A94E09A95F1F7959828
:1008D00092B3907F92BB92B38F70892B82BB959A13
:1008E00084E08A95F1F7959898EB9A95F1F7089539
:1008F000949892B3907F92BB22B3982F92959F7059
:10090000922B92BB959A94E09A95F1F7959892B3B1
:10091000907F92BB92B38F70892B82BB959A84E0B3
:100920008A95F1F7959898EA9A95F1F70895949831
:1009300082B3807F82BB82B382BB959A84E08A9522
:10094000F1F7959882B3807F82BB909A959A94E054
:100950009A95F1F7959888EA8A95F1F78FE697E1ED
:100960000197F1F700C000000895949882B3807F4A
:1009700082BB82B382BB959A84E08A95F1F7959801
:1009800082B3807F82BB919A959A94E09A95F1F711
:10099000959888EA8A95F1F78FE697E10197F1F744
:1009A00000C000000895623059F1633028F06330D0
:1009B00049F1643019F108956130E9F7805894984D
:1009C00092B3907F92BB22B3982F92959F70922BF7
:1009D00092BB959A94E09A95F1F7959892B3907F8F
:1009E00092BB92B38F70892B82BB959A84E08A95D3
:1009F000F1F7959898EA9A95F1F708958053DFCF2B
:100A00008054DDCF8057DBCFFC018081882311F13A
:100A10003196949A92B3907F92BB22B3982F92957D
:100A20009F70922B92BB959A94E09A95F1F79598C6
:100A300092B3907F92BB92B38F70892B82BB959AB1
:100A400084E08A95F1F7959898EB9A95F1F7819162
:100A50008823F9F60895AA1BBB1B51E107C0AA1F02
:100A6000BB1FA617B70710F0A61BB70B881F991F4F
:100A70005A95A9F780959095BC01CD01089597FBF3
:100A8000092E05260ED057FD04D014D00AD0001C24
:100A900038F450954095309521953F4F4F4F5F4F1B
:100AA0000895F6F790958095709561957F4F8F4FDB
:100AB0009F4F0895A1E21A2EAA1BBB1BFD010DC07A
:100AC000AA1FBB1FEE1FFF1FA217B307E407F507FE
:100AD00020F0A21BB30BE40BF50B661F771F881FDA
:100AE000991F1A9469F760957095809590959B0170
:100AF000AC01BD01CF010895FB019F01E894423094
:100B0000BCF04532ACF44A3029F497FB1EF49095C2
:100B100081959F4F642F77279EDF805D8A330CF08D
:100B2000895D8193CB010097A9F716F45DE251939B
:100B30001082C90100C0DC01FC01672F719177238D
:100B4000E1F7329704C07C916D9370836291AE1788
:0A0B5000BF07C8F30895F894FFCF23
:100B5A00555F536F6C00555F42617400546573743E
:020B6A00000089
:00000001FF
