:1000000012C02CC02BC02AC029C028C027C026C0BF
:1000100025C06DC123C022C021C020C01FC01EC08A
:100020001DC01CC01BC011241FBECFE5D4E0DEBF25
:10003000CDBF10E0A0E6B0E0ECE7FBE002C0059029
:100040000D92A237B107D9F710E0A2E7B0E001C0E6
:100050001D92A537B107E1F7A9D28EC5D1CF80ECAB
:1000600087B986E086B9379A369A3699FECF84B139
:1000700095B10895379A08953798089597B18F717B
:10008000907E892B87B9369A3699FECF24B135B147
:10009000C9010895AF92BF92DF92EF92FF920F9342
:1000A0001F93DF93CF93CDB7DEB764970FB6F89465
:1000B000DEBF0FBECDBFD82EB29B75C0882309F41A
:1000C00078C080E061E0BDD480E690E0EBD489E0C8
:1000D00061E0B7D486E690E0E5D480E090E0CEDF42
:1000E0008C01000F111F080F191F000F111F000FA7
:1000F000111F000F111F080F191F80E062E0A1D42B
:1001000048EEA42E43E0B42EC801B501F2D47C0120
:10011000CB018E010F5F1F4FB8014AE050E0FDD4C4
:10012000C801C0D48CE213D4C701B8014AE050E042
:10013000F4D4C801B7D482E090E0A0DF7C01EE0CDB
:10014000FF1CE80EF91EEE0CFF1CEE0CFF1CEE0C63
:10015000FF1CE80EF91E89E062E073D4C701B50107
:10016000C8D47C01CB01B8014AE050E0D6D4C80124
:1001700099D48CE2ECD3C701B8014AE050E0CDD469
:10018000C80190D48D2D64960FB6F894DEBF0FBED3
:10019000CDBFCF91DF911F910F91FF90EF90DF9036
:1001A000BF90AF900895882369F388E0EFD3DD24F2
:1001B000E9CF8CE0EBD3DD24D39483CFCF92DF92D1
:1001C000EF92FF920F931F93DF93CF93CDB7DEB7DC
:1001D00065970FB6F894DEBF0FBECDBF082F262F50
:1001E000B29B79C0662309F47CC0002309F063C088
:1001F00080E061E02D8B25D480E690E053D489E047
:1002000061E01FD486E690E04DD480E090E036DFD8
:100210008C01000F111F080F191F000F111F000F75
:10022000111F000F111F080F191F80E062E009D491
:10023000F8EECF2EF3E0DF2EC801B6015AD47C01D0
:10024000CB018E010F5F1F4FB8014AE050E065D42B
:10025000C80128D48CE27BD3C701B8014AE050E042
:100260005CD4C8011FD482E090E008DF7C01EE0C72
:10027000FF1CE80EF91EEE0CFF1CEE0CFF1CEE0C32
:10028000FF1CE80EF91E89E062E0DBD3C701B6016E
:1002900030D47C01CB01B8014AE050E03ED4C80123
:1002A00001D48CE254D3C701B8014AE050E035D400
:1002B000C801F8D32D89822F65960FB6F894DEBF5A
:1002C0000FBECDBFCF91DF911F910F91FF90EF90A7
:1002D000DF90CF900895662371F388E057D320E034
:1002E000EACF8CE053D321E0002329F781CF1F927E
:1002F0000F920FB60F9211248F93809174008F5F2D
:100300008093740080937200809173008360809367
:1003100073008F910F900FBE0F901F901895CF9381
:10032000DF9380E090E0AADEEC0181E090E0A6DEC1
:100330009C012C9FC0012D9F900D3C9F900D11247E
:10034000BC0180E090E0DF91CF910895AF92BF9221
:10035000CF92DF92EF92FF920F931F93CF93DF9391
:1003600080E090E08BDE7C0181E090E087DE8C0114
:1003700083B58E3F08F087C083B58F5F83BD20E5CE
:100380002A95F1F780E090E079DEEC0181E090E0E1
:1003900075DE23B5233008F448C00E9D50010F9D33
:1003A000B00C1E9DB00C1124CC24DD248C9F700158
:1003B0008D9FF00C9C9FF00C112400E010E083B5A1
:1003C000825083BD30E53A95F1F780E090E056DE4B
:1003D000EC0181E090E052DE9C012C9FC0012D9F3A
:1003E000900D3C9F900D1124A0E0B0E0EA14FB04B6
:1003F0000C051D0530F0E816F9060A071B0708F082
:10040000A8C08A159B05AC05BD0508F06FC083B573
:100410008F5F83BDDF91CF911F910F91FF90EF9080
:10042000DF90CF90BF90AF90089581E083BDEE2420
:10043000FF2487019EEFA92E1BC083B58F5F83BD6C
:1004400080E090E01BDEEC0181E090E017DE9C0193
:100450002C9FC0012D9F900D3C9F900D1124A0E07A
:10046000B0E08E159F05A007B107E0F17C018D017A
:100470008FE59AEE0197F1F700C0000083B58E3F3B
:10048000E0F2A3BCDDCF8EEF83BDEE24FF24870115
:10049000AA24A3941CC083B5815083BD80E090E062
:1004A000EDDDEC0181E090E0E9DD9C012C9FC001D5
:1004B0002D9F900D3C9F900D1124A0E0B0E08E1573
:1004C0009F05A007B10708F4A2CF7C018D018FE53D
:1004D0009AEE0197F1F700C0000083B58230D8F69C
:1004E000A3BCDCCF83B5815083BD94CF8E159F050F
:1004F000A007B10708F48BCFEE24FF248701AA24BC
:10050000A3941CC083B5815083BD80E090E0B6DD2C
:10051000EC0181E090E0B2DD9C012C9FC0012D9F99
:10052000900D3C9F900D1124A0E0B0E08E159F052A
:10053000A007B10708F46BCF7C018D018FE59AEE1F
:100540000197F1F700C0000083B58230D8F6A3BC54
:10055000DCCFEE24FF2487018EEFA82E1CC083B5CC
:100560008F5F83BD80E090E089DDEC0181E090E069
:1005700085DD9C012C9FC0012D9F900D3C9F900D0F
:100580001124A0E0B0E08E159F05A007B10708F484
:10059000A9CF7C018D018FE59AEE0197F1F700C09C
:1005A000000083B58E3FD8F2A3BCDCCFEF92FF9260
:1005B0000F931F93CF93DF9387B3827C896387BBAD
:1005C00084B3806384BB81B38F7381BB48DD17D153
:1005D0008FEB94EDA1E081509040A040E1F700C086
:1005E00000008FE0D3D18CE690E05CD289E685BD37
:1005F00085E083BF89B7816089BF789488EC83BD2B
:1006000019BC18BC80EA83BD10E0FF2400E0EE2492
:10061000E39482E090E032DD8B3F910508F18D3F5D
:10062000910508F0959A80E090E028DDEC0182E0E9
:1006300090E024DD8C179D071CF5B09BC09A112318
:1006400019F088B38F7C88BB81DE809172008D3277
:1006500049F010E082E090E011DD8B3F9105F8F663
:10066000AD98E1CF8091730080FFF3CF8E2D12DD26
:10067000E82E809173008E7F8093730010E0C9CFC5
:1006800082E090E0FBDCEC0180E090E0F7DC8C178E
:100690009D070CF0BECF86B38E7F09F0C0989C9961
:1006A000AC98002329F410FF22C01E7FC49801E0FB
:1006B000FF2031F411FF16C01D7FC598FF24F3946D
:1006C000809172008D3209F0A4CF8091730080FF79
:1006D000A0CF8E2DDFDCE82E809173008E7F80937B
:1006E000730097CF1260C59AFF24F394E9CF11608D
:1006F000C49A01E0DDCFDF92EF92FF920F931F9338
:10070000CF93DF932EEFD22E1BC083B58F5F83BDB7
:1007100080E090E0B3DCEC0181E090E0AFDC9C0194
:100720002C9FC0012D9F900D3C9F900D1124A0E0A7
:10073000B0E08E159F05A007B10768F07C018D0120
:100740008FE59AEE0197F1F700C0000083B58E3F68
:10075000E0F2D3BCDDCF83B5815083BDDF91CF9173
:100760001F910F91FF90EF90DF900895DF92EF922D
:10077000FF920F931F93CF93DF93DD24D3941BC07D
:1007800083B5815083BD80E090E078DCEC0181E0AE
:1007900090E074DC9C012C9FC0012D9F900D3C9F2C
:1007A000900D1124A0E0B0E08E159F05A007B107C1
:1007B00068F07C018D018FE59AEE0197F1F700C09A
:1007C000000083B58230E0F6D3BCDDCF83B58F5F08
:1007D00083BDDF91CF911F910F91FF90EF90DF903C
:1007E000089582E090E04ADC8B3F910528F08D3F30
:1007F000910508F0959A0895AD980895089581B3EC
:100800008F6381BB82B3807C82BB87EC9FEA0197B8
:10081000F1F700C0000082B3807F82BB82B38360A7
:1008200082BB959A94E09A95F1F7959887E99AE3B7
:100830000197F1F700C00000959A94E09A95F1F7BE
:10084000959887EB9BE00197F1F700C00000959A1F
:1008500094E09A95F1F7959887EB9BE00197F1F773
:1008600000C0000082B3807F82BB919A959A94E089
:100870009A95F1F7959887E99AE30197F1F700C007
:100880000000949882B3807F82BB919A959A94E0FD
:100890009A95F1F7959882B3807F82BB939A959A47
:1008A00084E08A95F1F7959898EA9A95F1F79498EB
:1008B00082B3807F82BB82B382BB959A84E08A95A3
:1008C000F1F7959882B3807F82BB82B38C6082BB44
:1008D000959A94E09A95F1F7959888EA8A95F1F7B8
:1008E000949882B3807F82BB82B382BB959A94E056
:1008F0009A95F1F7959882B3807F82BB82B3866028
:1009000082BB959A84E08A95F1F7959898EA9A9532
:10091000F1F7949882B3807F82BB82B382BB959AB1
:1009200084E08A95F1F7959882B3807F82BB909A94
:10093000959A94E09A95F1F7959888EA8A95F1F757
:100940008FE697E10197F1F700C000000895949AAF
:1009500092B3907F92BB22B3982F92959F70922B67
:1009600092BB959A94E09A95F1F7959892B3907FFF
:1009700092BB92B38F70892B82BB959A84E08A9543
:10098000F1F7959898EB9A95F1F70895949892B3AA
:10099000907F92BB22B3982F92959F70922B92BB1F
:1009A000959A94E09A95F1F7959892B3907F92BBBF
:1009B00092B38F70892B82BB959A84E08A95F1F768
:1009C000959898EA9A95F1F70895949882B3807F64
:1009D00082BB82B382BB959A84E08A95F1F79598A1
:1009E00082B3807F82BB909A959A94E09A95F1F7B2
:1009F000959888EA8A95F1F78FE697E10197F1F7E4
:100A000000C000000895949882B3807F82BB82B3B7
:100A100082BB959A84E08A95F1F7959882B3807F9E
:100A200082BB919A959A94E09A95F1F7959888EA05
:100A30008A95F1F78FE697E10197F1F700C0000082
:100A40000895623059F1633028F0633049F1643021
:100A500019F108956130E9F78058949892B3907F26
:100A600092BB22B3982F92959F70922B92BB959A2E
:100A700094E09A95F1F7959892B3907F92BB92B3D8
:100A80008F70892B82BB959A84E08A95F1F79598AF
:100A900098EA9A95F1F708958053DFCF8054DDCF1F
:100AA0008057DBCFFC018081882311F13196949A25
:100AB00092B3907F92BB22B3982F92959F70922B06
:100AC00092BB959A94E09A95F1F7959892B3907F9E
:100AD00092BB92B38F70892B82BB959A84E08A95E2
:100AE000F1F7959898EB9A95F1F781918823F9F6AB
:100AF0000895AA1BBB1B51E107C0AA1FBB1FA61765
:100B0000B70710F0A61BB70B881F991F5A95A9F7B6
:100B100080959095BC01CD010895FB019F01E8945B
:100B20004230BCF04532ACF44A3029F497FB1EF455
:100B3000909581959F4F642F7727DBDF805D8A3307
:100B40000CF0895D8193CB010097A9F716F45DE263
:100B500051931082C90100C0DC01FC01672F719123
:100B60007723E1F7329704C07C916D937083629193
:0C0B7000AE17BF07C8F30895F894FFCF3C
:100B7C00555F536F6C00555F42617400546573741C
:020B8C00000067
:00000001FF
